:10341B00504D322E353A0050756C73653A002020B2
:08342B002020202020202000B9
:0E31B900015700015601015401015502C102E7
:1033E900538E7F5389F0758A68758CC6C28DD28CCD
:0933F900D2AFD2A9C2A8D28822E9
:0A356900C2967FF41234AAD2962213
:10334200C2967F641234AAD2967F641234AAC296BD
:103352007F641234AAD2967F641234AAC2967F6422
:063362001234AAD29622EB
:10313300AB07AA067C007D64121E17EF2430F558F6
:103143007C007D64AF03AE02121E17AA04AB057C9C
:10315300007D0AAF03AE02121E17EF2430F5597C2F
:10316300007D0AAF03AE02121E17ED2430F55A7B21
:06317300007A00795822E9
:101E92001233681232301233E9122632123294D2DD
:101EA20096D284C2B6C2A7D283D2B5D2B4D2B7D2A6
:101EB200B330030FC203E4900098F0A3F0122DA1F7
:101EC200122949200103021F73C201E4900092F01B
:101ED200A3F090008DE0FEA3E07C002400FFEC3E26
:101EE200FE7D05121E05AC06AD07E4121CE3E4FB01
:101EF200FA79807844121C41900074121E7A7FBCD9
:101F02007E347D117C43900074E0F8A3E0F9A3E0F5
:101F1200FAA3E0FB121B387B687A91799E78411212
:101F22001A47121D1C900064EEF0A3EFF0750EEF3D
:101F3200750F7D7510FF75113475121B7B1F7A00AA
:101F42007D6E7C007F107E0012218A900064E0FE8C
:101F5200A3E0FF1231338B108A118912750EEF75CF
:101F62000F7D7B007AF87D6E7C007F407E0012211F
:101F72008A20A703021FF7750EEF750F7D7510FFFC
:101F82007511347512227B1F7A007D827C007F10CE
:101F92007E0012218A900072E0FEA3E0FF1231332C
:101FA2008B108A118912750EEF750F7D7B007AF8FE
:101FB2007D827C007F407E0012218A300058C20060
:101FC200E4900094F0A3F0E553D3943C5007E5531A
:101FD200C394145005E4F5538006855353123569B2
:101FE200E55375F002A4FF900072E5F0F0A3EFF064
:101FF200E4F553802120A71E750EEF750F7D751035
:10200200FF7511347512297B1F7A007D827C007F57
:10201200107E0012218AE555640160030220EA2045
:1020220004030220EAC204900096F0A3F0122CF3FB
:10203200E556B40117900066E529F0A3E52AF0A35E
:10204200E52BF0A3E52CF090006C801AE556B40263
:102052001C90006AE529F0A3E52AF090006EE52BBA
:10206200F0A3E52CF0A3E52DF0A3E52EF090006699
:10207200E0FEA3E0FFC390006BE09FFF90006AE0E8
:102082009EFE123552D3EF9420EE64809483504624
:10209200900068E0FEA3E0FFC390006FE09FFF9016
:1020A200006EE09EFE123552D3EF9420EE648094CF
:1020B20083502390006CE0FEA3E0FFC3900071E028
:1020C2009FFF900070E09EFE123552D3EF9420EEF7
:1020D200648094834008B2B61230E8123569E5563E
:1020E200B40203E4F5560556122B7F8F191233CB37
:1020F200E519B45405751B018071E519B4461C0538
:1021020055E555D394024003755501E555B40104D4
:10211200C2838007E555B40202D283E519B45503A0
:10212200123510E519B4440312351EE519645060E6
:1021320003021EB30554E554D394024003755401BF
:10214200E554B40216D2A7E4900094F0A3F0F5533C
:10215200900072F0A3F0D2A8021EB3E554640160AD
:1021620003021EB3C2A7C2A8021EB37F7D7EEF1276
:1021720032631227D2122949122B7F8F19E519B423
:0821820054F012304C021EB3B0
:030003000235972C
:03359700055332A7
:03000B00022C4480
:102C4400C0E0C083C082C0D0758A68758CC6C3904A
:102C54000093E094F4900092E09401500EA3E004F9
:102C6400F07011900092E004F08009900092E4F07A
:102C7400A3F0D201C3900097E094E8900096E0940A
:102C840003500EA3E004F07011900096E004F0806D
:102C940009900096E4F0A3F0D204C3900099E09464
:102CA400E8900098E09403500EA3E004F0701190B3
:102CB4000098E004F08009900098E4F0A3F0D203B7
:102CC400C3900095E09430900094E09475500EA366
:102CD400E004F07011900094E004F08009900094F6
:0F2CE400E4F0A3F0D200D0D0D082D083D0E03281
:03004300022FF990
:102FF900C0E0C083C082C0D075AF00E59A30E1035C
:10300900539AFDE59A30E02F539AFE74782557F5C7
:1030190082E43400F583E59BF074782557F582E462
:103029003400F583E0B4AA037557140557E557D35F
:10303900941A400375570075AF01D0D0D082D08360
:03304900D0E032A2
:10246E00EFD3940540037F0122121DBFFED39403C8
:10247E0040037F0222EF7041EE700B900001121D9F
:10248E00D8F452935294121DBFB4010B9000011256
:10249E001DD84293F45294121DBFFEB4020A90004E
:1024AE0001121DD842934294EEB4030D9000011216
:1024BE001DD8FEF45293EE4294EF64017043121D48
:1024CE00BFFE700B900001121DD8F452915292EE85
:1024DE00B4010B900001121DD84291F45292121DBC
:1024EE00BFB4020A900001121DD842914292121DF1
:1024FE00BFB4030D900001121DD8FEF45291EE42AE
:10250E0092EF64027043121DBFFE700B9000011219
:10251E001DD8F452955296EEB4010B900001121D87
:10252E00D84295F45296121DBFB4020A90000112C1
:10253E001DD842954296121DBFB4030D9000011294
:10254E001DD8FEF45295EE4296EF64037043121DB1
:10255E00BFFE700B900001121DD8F452B152B2EEB4
:10256E00B4010B900001121DD842B1F452B2121DEB
:10257E00BFB4020A900001121DD842B142B2121D20
:10258E00BFB4030D900001121DD8FEF452B1EE42FD
:10259E00B2EF64047043121DBFFE700B9000011267
:1025AE001DD8F452B352B4EEB4010B900001121DBB
:1025BE00D842B3F452B4121DBFB4020A90000112F5
:1025CE001DD842B342B4121DBFB4030D90000112C8
:1025DE001DD8FEF452B3EE42B4EF64057043121DE3
:1025EE00BFFF700B900001121DD8F452C952CAEFF2
:1025FE00B4010B900001121DD842C9F452CA121D2B
:10260E00BFB4020A900001121DD842C942CA121D5F
:10261E00BFB4030D900001121DD8FFF452C9EF4252
:04262E00CA7F00223D
:103368007509F0E4F508FB7A007908FF12246E75F8
:1033780009137508037F0112246E7509C0750803C7
:053388007F0302246E2A
:083587007F03AE071FEE70FA8E
:01358F002219
:0D34CA00AD07AF051DEF600512358780F5D9
:0134D70022D2
:0F34AA007DA57C06ED1D70011C144C70F7DFF141
:0134B90022F0
:1000460000000000000000000000000000000000AA
:1000560000101010101010101010000010100000EA
:1000660000006C6C24240000000001000000000069
:100076000024242424FE48484848FC909090900090
:1000860000103C549290503814121292547810007A
:100096000000225C94A8481010242A5254880000BC
:1000A600000030484850206E54948C888A740000B2
:1000B60000003030101000000000000000000000BA
:1000C6000004081010202020202020101008040012
:1000D60000804020201010101010102020408000BA
:1000E60000000000105438103854100000000000C2
:1000F60000000010101010FE10101010000000007C
:1001060000000000000000000000000010102000A9
:1001160000000000000000FE0000000000000000DB
:1001260000000000000000000000000010100000A9
:1001360000000404080810102020404080800000C1
:1001460000003844828282828282828244380000A1
:10015600000010701010101010101010107C00000D
:1001660000003844828204081020408284FC00008B
:100176000000384482020438040202824438000037
:100186000000040C141424244444FE04040E00004D
:100196000000FC808080B8C482020282847800005D
:1001A60000003C428280B8C48282828244380000C9
:1001B60000007E4282040408080810101010000097
:1001C60000003844828244384482828244380000E7
:1001D6000000384482828282463A02824438000015
:1001E60000000000101000000000101000000000C9
:1001F6000000000010100000000000101020000099
:10020600000000000618608060180600000000006C
:10021600000000000000FE0000FE000000000000DC
:1002260000000000C0300C020C30C00000000000CE
:1002360000384482820204081010100010100000DA
:1002460000003844829AAAAAAAAAAA9680423C002A
:10025600000010101028282844447C4444EE000076
:100266000000FC424242427C4242424242FC0000C2
:1002760000003C4482808080808082824438000076
:100286000000F844424242424242424244F80000E0
:100296000000FC444240447C4440404244FC000090
:1002A6000000FC444240447C4440404040F0000092
:1002B6000000344C828080808E8484844C3400001C
:1002C6000000EE444444447C4444444444EE00006C
:1002D60000007C101010101010101010107C000080
:1002E60000003E080808080808080888887000000A
:1002F6000000EE44484850605048484444EE000030
:100306000000E040404040404040404244FC000085
:100316000000C6446C6C6C545454444444EE0000D3
:100326000000CE4464646454544C4C4C44E40000D5
:1003360000003844828282828282828244380000AF
:100346000000F844424242447840404040E0000009
:100356000000384482828282828282BA443C020051
:100366000000F048444444487048444444E60000D1
:1003760000003C44828040300C0202824478000037
:1003860000007C549210101010101010103800004D
:100396000000EE4444444444444444444438000089
:1003A6000000EE4444444428282828101010000079
:1003B6000000EE445454545454542828282800006D
:1003C6000000EE44442828101028284444EE00007B
:1003D6000000EE44442828281010101010380000A1
:1003E60000007E44840808102020408284FC00001F
:1003F600001C1010101010101010101010101C00FF
:100406000000EE445454FE54545428282828000072
:100416000070101010101010101010101010700036
:1004260000304884000000000000000000000000CA
:100436000000000000000000000000000000FE00B8
:100446000040200000000000000000000000000046
:100456000000000000007884047C84848C76000010
:100466000000C04040405864424242426458000086
:10047600000000000000384480808080443800007E
:1004860000000C040404344C848484844C3600003C
:10049600000000000000788484FC808084780000DE
:1004A600000018242020F8202020202020700000A2
:1004B6000000000000003A444478807C82827C0080
:1004C6000000C040404058644444444444EE0000A8
:1004D600000010100000301010101010103800002E
:1004E6000000101000003010101010101090600066
:1004F6000000C04040405C485060504844EE000058
:1005060000003010101010111010101010390000DB
:10051600000000000000ACD29292929292D60000A7
:1005260000000000000058E44444444444EE000047
:1005360000000000000038448282828244380000B5
:10054600000000000000D864424242645840E000C7
:10055600000000000000364C8484844C34040E00F5
:100566000000000000006C302020202020700000D9
:100576000000000000007888846018844478000039
:10058600000000202020F820202020202418000031
:10059600000000000000C64242424242463A0000C5
:1005A600000000000000EE44442828281010000037
:1005B600000000000000EE4444545428282800009F
:1005C600000000000000EE442810102844EE000051
:1005D600000000000000EE444428281010A0C000CF
:1005E6000000000000007E448810204284FC0000C9
:1005F600000C1010101010601010101010100C00CD
:100606000010101010101010101010101010100004
:1006160000C0202020202018202020202020C000DC
:1006260000000000000000728C00000000000000C6
:100636000000000000001FE000003FF000003FF057
:1006460000001FE0000180060003C00F0003C00F7A
:100656000003C00F0003C00F0003C00F0003C00F4C
:100666000003C00F0003C00F0003000300000000DA
:100676000000000000000000000300030003C00F9C
:100686000003C00F0003C00F0003C00F0003C00F1C
:100696000003C00F0003C00F0003C00F0001800657
:1006A60000001FE000003FF000003FF000001FE0E8
:1006B6000000000000000000000000800000018033
:1006C600000003800000078000000780000007800C
:1006D60000000780000007800000078000000780F8
:1006E6000000078000000780000001800000000075
:1006F60000000000000000000000018000000780EC
:1007060000000780000007800000078000000780C7
:1007160000000780000007800000078000000780B7
:10072600000003800000018000000080000000003F
:100736000000000000001FE000003FF00000FFF096
:100746000001FFE0000000060000000F0000000F9F
:100756000000000F0000000F0000000F0000000F57
:100766000000000F0000000F00001FE300007FF8EC
:1007760000007FF800001FE0000300000003C00037
:100786000003C0000003C0000003C0000003C00057
:100796000003C0000003C0000003C0000001800089
:1007A60000001FF000003FF800003FFC00001FFEA5
:1007B600000000000003FF800001FFC00000FFC032
:1007C60000007F80000000180000003C0000003C94
:1007D6000000003C0000003C0000003C0000003C23
:1007E6000000003C0000003C00007F8C0001FFE0A0
:1007F6000001FFF000007F800000000C0000003CBC
:100806000000003C0000003C0000003C0000003CF2
:100816000000003C0000003C0000003C0000001806
:1008260000007F800000FFC00001FFC00003FF80C2
:1008360000000000000000000002000100030003A9
:10084600000380070003C00F0003C00F0003C00FA2
:100856000003C00F0003C00F0003C00F0003C00F4A
:100866000003C00F0003C00F00031FE300007FF862
:1008760000007FFC00001FE0000000030000000FE6
:100886000000000F0000000F0000000F0000000F26
:100896000000000F0000000F0000000F0000000F16
:1008A6000000000700000003000000010000000037
:1008B6000000000000001FFC00003FF800003FF0B1
:1008C60000001FE0000180000003C0000003C0001C
:1008D6000003C0000003C0000003C0000003C00006
:1008E6000003C0000003C00000031FE000007FF803
:1008F60000007FF800001FE0000000030000000F6A
:100906000000000F0000000F0000000F0000000FA5
:100916000000000F0000000F0000000F000000069E
:1009260000003FE000007FF00000FFF00001FFE064
:100936000000000000001FFC00003FF800003FF030
:1009460000001FE0000180000003C0000003C0009B
:100956000003C0000003C0000003C0000003C00085
:100966000003C0000003C00000031FE000007FF882
:1009760000007FFC00001FE0000300030003C00F1F
:100986000003C00F0003C00F0003C00F0003C00F19
:100996000003C00F0003C00F0003C00F0001800654
:1009A60000001FE000003FF000003FF000001FE0E5
:1009B600000000000007FFE00003FFC00001FF8801
:1009C6000000FF18000000380000007800000078E2
:1009D6000000007800000078000000780000007831
:1009E60000000078000000780000001800000000F9
:1009F6000000000000000000000000180000007861
:100A06000000007800000078000000780000007800
:100A160000000078000000780000007800000078F0
:100A26000000003800000018000000080000000068
:100A36000000000000001FE000003FF000003FF053
:100A460000001FE0000180060003C00F0003C00F76
:100A56000003C00F0003C00F0003C00F0003C00F48
:100A66000003C00F0003C00F00031FE300007FF860
:100A760000007FFC00001FE0000300030003C00F1E
:100A86000003C00F0003C00F0003C00F0003C00F18
:100A96000003C00F0003C00F0003C00F0001800653
:100AA60000001FE000003FF000003FF000001FE0E4
:100AB6000000000000001FE000003FF000003FF0D3
:100AC60000001FE0000180060003C00F0003C00FF6
:100AD6000003C00F0003C00F0003C00F0003C00FC8
:100AE6000003C00F0003C00F00031FE300007FF8E0
:100AF60000007FFC00001FE0000000030000000F64
:100B06000000000F0000000F0000000F0000000FA3
:100B16000000000F0000000F0000000F000000069C
:100B260000001FE000003FF000007FF00000FFE043
:100B360000000000000000000000000000000000AF
:100B4600000000000000000000000000000000009F
:100B5600000000000000000000000000000000008F
:100B6600000000000000000000000000000000007F
:100B7600000000000000000000000000000000006F
:100B860000000000000078000000780000007800F7
:100B960000007800000078000000780000000000E7
:100BA600000000000000000000000000000000003F
:100BB600000000000000000000000000000000002F
:100BC600000000000000000000000000000000001F
:100BD6000000070000000F8000000F8000000F805B
:100BE60000000700000000000000000000000000F8
:100BF60000000000000000000000000000000700E8
:100C060000000F8000000F8000000F80000007002A
:100C160000000000000000000000000000000000CE
:100C260000000000000000000000000000000000BE
:100C360000000000000000000000000000000000AE
:100C46000007C006000FE0060000000C0030181870
:100C56000030181800301830003018300030186096
:100C6600003008C00007C0C0000FE0800000000090
:100C76000000000FE0000607C000063018000C3028
:100C860018000C30180018301800303018003030BA
:100C9600180060000000C00FE000C007C0000000A0
:100CA600000000000000000000000000000000003E
:100CB600000000000000000000000000000000002E
:100CC6000000000000000000000700E0000887FCAC
:100CD60000088E0300089801800718008000300085
:100CE600000030000000700000006000000060009E
:100CF600000060000000600000006000000070005E
:100D0600000030000000300000003800000018012C
:100D160000000C03000007FC000001F000000000CA
:100D260000000000000000000000000000000000BD
:100D360000000000000000000000000000000000AD
:100D4600000000000000000000000000000000009D
:100D5600000000000000000000000000000000008D
:100D660000000000000000000000000000003FF04E
:100D760000007FF000007FE00000FFC000000000E0
:100D8600000000000000000000000000000000005D
:100D9600000000000000000000000000000000004D
:100DA600000000000000000000000000000000003D
:100DB6000000B5E70200020002007FF04210421078
:100DC6007FF0421042107FF042000208020801F84C
:100DD60000000000D7D37FF0002000400080010013
:100DE6000200FFF8020002000200020002000200F8
:100DF6000E0000000000C8AB0100010002800440A4
:100E0600082010102FE8C106010001001FF00100A4
:100E1600010001007FFC0000B6AF004000407C40AE
:100E2600004001FC0044FE442044204420844884C1
:100E36004484FD04450402280410BCBC1020102084
:100E4600102013FEFC201020102015FC188430887A
:100E5600D04810501020105051882606CAF50100BF
:100E66000120011001107FFC038005400540092088
:100E76001110210841040102010001000100D2BA4B
:100E86000080404027F8114001408278424816A869
:100E96001AD023502220422042500288000000002F
:100EA600BEA73FE020203FE020203FE00000FDF805
:100EB60085088508FDF885088508FDF88508000081
:100EC6000000B2E200084F8828880AA88AA84AA823
:100ED6000AA82AA82AA8422845088488888810389B
:100EE60000000000CAD44050204820400FF80040BF
:100EF600E04027402240224022202A2833A82E18EC
:100F0600000800000000B3CC00001BF0E210221025
:100F160023F0F800200033F068806080A3F0208082
:100F2600208027F800000000D0F2020001003FF800
:100F360020002FF02020224021803FF8208820909A
:100F460040804080838000000000D1D5200010F84A
:100F56007E20444028F87E8848A850A864A848A85F
:100F660072A884501888610800000000C9AB100000
:100F760010003FE0404080807FF042104210421057
:100F86007FF04000400840083FF800000000CCEE2B
:100F960020802FF8208027F0F41027F0241027F067
:100FA600241027F03410CFF80220041000000000AF
:100FB600B3E404000200FFF80800104020207FF090
:100FC600089008800880088010882088C078000073
:100FD6000000CEC4040002000200FFF810401040DA
:100FE6000880088005000200050008803060C018EF
:100FF60000000000D7D604000200FFF88008800831
:101006003FC0008001000200FFF80200020002005B
:101016000E0000000000CFD43FE0202020203FE05B
:10102600202020203FE008804890289028A00880B3
:101036000880FFF800000000CABE00003FE0000084
:1010460000000000FFF802001240122022104208A1
:10105600820802000E0000000000CDBC7FF84008A8
:10106600440847C84848548843084CC873384088E1
:101076004C08430840887FF800000000C6AC00809A
:101086002080208020803FF02000200020003FC0EC
:101096002040204020404040804000000000B4A591
:1010A60020403840484091F07D50555055507D5075
:1010B60055F054407C40545057F88C08000000000E
:1010C600C3FE2220222027F8FA2027F0241027F03A
:1010D6003410E7F020802FF821402220EC18000081
:1010E6000000CAE440804140F22044108BE8A00092
:1010F600F78824A827A834A8E7A824A8248825B810
:1011060000000000C8EB0800040004000200020012
:10111600050005000880088010401040202040107F
:10112600800800000000C8AB02000200050008802D
:1011360010402020DFD8020002001FC0020002007B
:101146000200FFF800000000B3CC00001BF0E21024
:10115600221023F0F800200033F068806080A3F0AE
:101166002080208027F800000000BCBC2080208062
:101176002080F7F02080208027E03220E2202140E6
:10118600208021402220EC1800000000CAF5020051
:10119600024002200200FFF807000A800A8012407F
:1011A6002220421082080200020000000000D6A79A
:1011B60002000200FFF8020002007FE0102010404B
:1011C600088005000200050018C0E0380000000095
:1011D600B3D62080208023F0F880208027F82820AE
:1011E6003020E7F82020222021202020E0E0000007
:1011F6000000D7A8020002007FF004000400FFF8F8
:10120600080010003FE0002000401C800300008022
:1012160000000000D7A201004080200017F00080E7
:1012260080804080008017F01080208020804080E1
:101236004FF800000000C5FA204024402440F4483E
:101246002450276024403440E4402440244025486C
:101256002648E43800000000B7A20200222022102F
:1012660044007FF8040008000FE014202440428068
:10127600810006C0383800000000B3C900A0009005
:1012860000807FF8408040907C90449044A044A029
:10129600444858A84118820800000000B9A6010079
:1012A6000100F90023F02110211021102110211036
:1012B6003910C21002100410086000000000D2C6E7
:1012C6000000002000780CE47904516810307E603C
:1012D60019981A3C2FE448E40838003000600000F2
:1012E600D1A100000120012003FC6220342004204B
:1012F60003FC240021B021202220323E18000FE0FA
:101306000000D4F10000000010FC1304110C3DF89D
:10131600703E10D015907CF0503E18101BFE023027
:1013260000200000CFEE0000000003FE00607C40BD
:1013360012FC11041106113611241F44794400C011
:10134600009C01860000C4BF000000000FE03C18AE
:10135600200820043E04600460047E046004200C1F
:1013660020081FF001800000B6CC0000080011FC28
:10137600103E3EF82D8C2904490409043E8C50FC8D
:1013860010881EC811FC100E0000B0B4000000400A
:10139600006012FE13023A427F4410C41BFE3C98C2
:1013A6007190113011A00078004C0000C8B7000001
:1013B600004000F878C41F8C313821EC2126413AD0
:1013C6007DE2272225FA3D26012401040000B6A865
:1013D6000000010001705FFC700420042FF801007A
:1013E6001100113821C431003F0063E0403800008D
:1013F600B3A4000000000818086008C00B001E0017
:10140600181C7FF01000118010E01838098E0F00AC
:101416000000B0B400000040006012FE13023A4221
:101426007F4410C41BFE3C987190113011A00078C7
:10143600004C0000B7B50000000007F806002400C5
:1014460014F8078C04042408261825F0647C64C26A
:1014560020801FC00000BBD8000000001FF030181D
:101466002008278C2C44284428442CC42784200494
:10147600300C1FF803800000C2F6004078204810A8
:1014860049E0482278344BB848B048A878A849289B
:1014960049244A244C2248A098400000000000003D
:1014A6000000000000000000000000000000000036
:1014B600000000000000000000000000B4BF0000B3
:1014C60000000000020100063FC00C3FE0180300C8
:1014D6001002003336603726203E66301C64301812
:1014E600642031FEE03F1FC01C0C00000C00070406
:1014F600003E07F00001C0000000000000000000F0
:10150600000000000000C9AB00000000000001FE62
:101516000003E3000703000C03001C3F003BFFC071
:101526003F30600C30200C30200C10200C10600F67
:10153600FFC0083F000800000800600E3FE007FCFF
:101546000000000000000000000000000000000095
:10155600CCEE00000000000000030000FFE00C07D6
:10156600F00C06000CFF803FF0E01FC0600CFE3060
:101576000CCC3004F83004FF2004C0201FFE603E6F
:10158600C06001FFF001FFF0006060004000000055
:1015960000000000000000000000B3E400000000AE
:1015A600000000200000300007FFF03FFFE00300CE
:1015B600000601800C01800801C01807E00FFE70CC
:1015C60007E0000206000604000404000404000C00
:1015D60006700C07E000000000000000000000009C
:1015E60000000000B2E200000000000000003039F8
:1015F600FC301FCC300706B00F06F01907B03137A4
:10160600B03136F01F27F00167F001E5F001E1F097
:101616000041F00CF8B03CD830008C30008030002F
:101626000000000000000000000000000000CAD416
:101636000000000000000803600C03700C0330007B
:101646003FE0003F800801003C0180047F80047D6C
:10165600800C00800C10C00C10C00C18400C1C60D4
:101666000F7E6006703000003000000000000000B1
:101676000000000000000000CEC400000000C00012
:1016860000E00000700001FFE01FFFC0180100002D
:101696000300000600000E00001C000E18000730B4
:1016A6000001E00000F00000FC00018F000303C011
:1016B6000201E00000000000000000000000000041
:1016C6000000D7D6000000000000002000003F0008
:1016D60031FFE03FC02038003030FE2033C66010B6
:1016E6000200000C00001800001800000C0007FFA4
:1016F600E03FFFE0000400000C00000C00000000CA
:10170600000000000000000000000000CFD4000030
:101716000000000007FF000F03C00C00401FF86028
:101726001800600800400E01C007FF00000000011D
:1017360084000184001987800F8CE0078C2000CC80
:101746000003FFE01FFFC0000000000000000000D3
:10175600000000000000CABE0000000000000E00ED
:10176600001FFFC0007FE000000000000000000036
:10177600000000003FC03FFFE000300000300000E6
:1017860030000613000C13C00C18F01818001818B7
:101796000000000000000000000000000000000043
:1017A600CDBC00000000000007FF000F03801CC036
:1017B600C019FC6011C66033062033E63036FF30B0
:1017C600301FF030703030FC30339F303600201040
:1017D600E060187C400E01C003FF000038000000E6
:1017E60000000000000000000000C6AC0000000081
:1017F6000000081800180800180800180800180C3F
:10180600201FFFF01FF80018000010000010F8005D
:101816001FFE001E0300100300100300100300103B
:101826000300180200000000000000000000000095
:1018360000000000CFD400000000000007FF000FEA
:1018460003C00C00401FF8601800600800400E013D
:10185600C007FF0000000001840001840019878092
:101866000F8CE0078C2000CC0003FFE01FFFC000B8
:101876000000000000000000000000000000CABEDA
:101886000000000000000E00001FFFC0007FE00007
:101896000000000000000000000000003FC03FFF05
:1018A600E00030000030000030000613000C13C0CA
:1018B6000C18F018180018180000000000000000AE
:1018C6000000000000000000B4A5000000000000B9
:1018D6000601800FC1801E6180304FC020CFE00717
:1018E6008D303FC9303379303379303FFB3037FFA5
:1018F600203267E03FE3803FE3C03263603267F047
:10190600304FB000000000000000000000000000A2
:101916000000C3FE0000000000000030C000FFF021
:101926000C79C00C1F800C7FE03FE0600CC0300CCF
:10193600FC3004C03007C0301E60603C3FC0041C51
:1019460000047FE000FFE00030C00060600000009F
:10195600000000000000000000000000CAE40000D3
:10196600000000000C03800C0FC0081C703F7000C4
:101976001F9FC0101FC0100000367C3017E6301FB6
:10198600E3B0067FB00277F007E3F03F7FF013364F
:10199600F00326300326300000000000000000009F
:1019A600000000000000C8EB000000000000060078
:1019B6000003800001C00000E00000700000780015
:1019C60000CC0000C6000183000301800700C006AA
:1019D60000E00C0070180030180000300000000015
:1019E60000000000000000000000000000000000F1
:1019F60000000000000000000000000000000000E1
:101A060000000000000000000000000000000000D0
:101A160000000000000000000000000000000000C0
:101A260000000000000000000000000000000000B0
:0A1A360000000000000000000000A6
:0D31C7000B4800010203040506070809007B
:0400060075CEDC22B5
:10344B007E08EF30E704D2958002C295C297D297DF
:06345B00EF25E0FFDEECAE
:013461002248
:0B355E008FCFE5CD30E7FB75CDC0221C
:0A357300C287C28512355ED287229E
:0A357D00C287D28512355ED2872284
:0E34D800AD07AC06AF0412357DAF0502357DA1
:03352C00E4FDFCBF
:0A352F00123573AF05AE040234D864
:0E34E600C2867F641234AAD2867F320234AAD4
:10002600AB05AA04AD07AC067F2112352FAD03AC94
:0B003600027F2012352F7F220235735D
:10317900AA05A907EBFD7C007F3812352FE9FD7CF4
:10318900007F3912352FE50DFD7C007F3612352F72
:10319900EAFD7C007F3712352FE9FD7C007F211283
:1031A900352FEAFD7C007F2012352F7F22023573EF
:0E34F4008B828A83120026AF82AE830234D808
:043263008E088F0939
:10326700750DAF7BDBE4FDFF123179E4FBFA9000CB
:1032770000AF09AE081234D8A3E58264B045837065
:0C328700F00BBB00010AEB64DC4A70E2B3
:013293002218
:102632001200061234E67F1012352C7F1112352C4F
:10264200E4FDFC7F1212352FE4FDFC7F1312352FBF
:10265200E4FDFC7F1412352F7F281234AA7D187CEA
:10266200007F1112352F7D217C117F1212352F7DB3
:10267200637C007F1312352F7D617C397F14123504
:102682002F7D007C087F1012352F7F0A1234AA7D1D
:10269200387C107F1112352F7F1E1234AA7D007CE8
:1026A200017F0212352F7D1C7C007F0112352F7DA8
:1026B200387C107F0312352FE4FDFC7F0712352F83
:1026C2007408FDFCFF12352F7D007C117F0B123543
:1026D2002FE4FDFC7F0C12352F7D017C057F0F124C
:1026E200352F7D207C007F1512352FE4FDFC7F20E5
:1026F20012352FE4FDFC7F2112352FE4FDFC7F30E3
:1027020012352F7DDB7C007F3112352FE4FDFC7FFB
:102712003212352FE4FDFC7F3312352F7DDB7C0036
:102722007F3412352FE4FDFC7F3512352F7DAF7CCF
:10273200007F3612352FE4FDFC7F3712352F7DDB0B
:102742007C007F3812352FE4FDFC7F3912352F7D56
:10275200037C067F5012352F7D0D7C087F51123588
:102762002F7D0C7C0D7F5212352F7D057C027F530D
:1027720012352F7D0A7C047F5412352F7D037C078E
:102782007F5512352F7D007C037F5612352F7D0039
:102792007C047F5712352F7D007C0B7F5812352F1A
:1027A2007D177C007F5912352F7D017C077F0F1228
:1027B200352F7D127C007F0712352F7F321234AA0B
:1027C2007D177C107F0712352F7F7D7EEF023263EB
:0C218A008E088F098C0A8D0B8A0C8B0DBF
:10219600850817850918AB10AA11A912121DBFFFD1
:1021A600700302246DC3948040030222AE751500AD
:1021B6008F16E516640D45157014851708851809E0
:1021C6007410250BF50BE4350AF50A0222A0D3E5B7
:1021D600169420E5159400400E74E02516F5167445
:1021E600FF3515F5158005E4F515F516E4F513E448
:1021F600F514E516C4F8540FC868FFE515C454F085
:1022060048FEAD137C00EF2DFFEC3EFE74462FF525
:102216008274003EF583E493FB7A0074807E00A806
:1022260014088006CEA2E713CE13D8F8FFEE5AFEA6
:10223600EF5B4E60197E00E5092514FFEE3508FEBA
:10224600E50B2DFDE50A3CFCAB0DAA0C8026E50D41
:10225600650F7004E50C650E601D7E00E50925140A
:10226600FFEE3508FE7C00E50B2513FDEC350AFC78
:10227600AB0FAA0E1234F40514E514C394085003E8
:102286000221F80513E513C3941050030221F574D7
:10229600082509F509E43508F50874012512F51233
:1022A600E43511F51102219CE4F515F516AB10AADB
:1022B60011A912121DBFFF900DB875F022E5161276
:1022C6001E86E51575F022A42583F583E4936F60D9
:1022D60003022440900001121DD8FF900DB975F03D
:1022E60022E516121E86E51575F022A42583F583D0
:1022F600E4936F6003022440F513E4F514900DBADD
:1023060075F022E516121E86E51575F022A42583C2
:10231600F58375F002E513121E86E493FD3395E00E
:10232600FC74807E00A814088006CEA2E713CE13A4
:10233600D8F8FFEE5CFEEF5D4E601C7E00E50925D9
:1023460014FFEE3508FE7C00E50B2513FDEC350A7F
:10235600FCAB0DAA0C8026E50D650F7004E50C6537
:102366000E601D7E00E5092514FFEE3508FE7C0093
:10237600E50B2513FDEC350AFCAB0FAA0E1234F45F
:102386000514E514C394085003022303E4F51490DE
:102396000DBB75F022E516121E86E51575F022A412
:1023A6002583F58375F002E513121E86E493FD334B
:1023B60095E0FC74807E00A814088006CEA2E71380
:1023C600CE13D8F8FFEE5CFEEF5D4E6024AF147EB0
:1023D60000E5092514CFEE3508CF2408CF3400FEDA
:1023E6007C00E50B2513FDEC350AFCAB0DAA0C8031
:1023F6002EE50D650F7004E50C650E6025AF147EA5
:1024060000E5092514CFEE3508CF2408CF3400FEA9
:102416007C00E50B2513FDEC350AFCAB0FAA0E126A
:1024260034F40514E514C3940850030223950513E8
:10243600E513C3941050030223000516E516700237
:102446000515C39432E515940050030222B37402B5
:102456002512F512E43511F51174102509F509E474
:072466003508F50802219C76
:01246D00224C
:0C2AB1008E2F8F308C318D328A338B34A5
:102ABD00E4F539E4F53AE538AE377807C333CE336C
:102ACD00CED8F92437F58274063EF58375F004E50A
:102ADD0039121E86E582253AF582E43583F583E4C5
:102AED0093F53BE4F974807E00A801088006CEA220
:102AFD00E713CE13D8F8FFEF553B6025E53A75F097
:102B0D0008A42530FFE52F35F0FEE97C002FFFEC02
:102B1D003EFEE5322539FDEC3531FCAB34AA338070
:102B2D002FE53465367004E53365356026E53A7575
:102B3D00F008A42530FFE52F35F0FEE97C002FFFCE
:102B4D00EC3EFEE5322539FDEC3531FCAB36AA35D0
:102B5D001234F409E96408708C053AE53AC394041B
:102B6D005003022AC30539E539C394205003022AC4
:012B7D00C097
:012B7E002234
:10346200D282D2817F051234CAC2827F051234CA47
:03347200C28122F2
:1034BA00C282D2817F051234CAD2827F050234CAFF
:10347500A2059282D2817F051234CAC2817F0502DC
:0234850034CA47
:10349900D2817F051234CAA282C2817F051234CA41
:0134A9002200
:02331B008F0A17
:10331D00E4F50BE50A25E0F50A9282D2817F0512CC
:10332D0034CAC2817F051234CA050BE50BC394085C
:05333D0040E10234999B
:1032C500E4F50AD282F509E50A25E0F50AD2817FFF
:1032D500051234CAA282E433420AC2817F05123440
:0C32E500CA0509E509C3940840DDAF0AE2
:0132F10022BA
:103402008F088D091234627FA612331BAF08123364
:093412001BAF0912331B0234BA8E
:102CF3001234627FA612331B7F3212331B123462EB
:102D03007FA712331BE4F5081232C574212508F896
:102D1300A607E508B40504D2058002C2051234757E
:102D23000508E508C3940640DF1234BA7F05123460
:102D3300AAE522FE7C00E42521FFEC3EFEAD07FC64
:102D4300121CE37B9A7A9979797840121B38121D09
:102D53001C8E298F2AE524FE7C00E42523FFEC3E0C
:102D6300FEAD07FC121CE37B9A7A997979784012BD
:102D73001B38121D1C8E2B8F2CE526FE7C00E425B0
:102D830025FFEC3EFEAD07FC121CE37B9A7A997992
:0D2D9300797840121B38121D1C8E2D8F2EDA
:012DA0002210
:103294007D0B7F311234027D087F2C1234027D08AD
:1032A4007F2D1234027D807F2E123402E4FD7F1EB6
:1032B400123402E4FD7F1F1234027D057F200234A4
:0132C4000207
:102F4C0041544431333739303337313539343B0D13
:102F5C000A004154480D0A0041540D0A0041542BFB
:102F6C00435343533D2247534D220D0A0041542BEA
:102F7C00434D47463D310D0A0041542B434D4753B9
:102F8C003D223133373930333731353934220D0A5C
:092F9C00005761726E696E670056
:0331D400015E0099
:1032300053877F759850438E40538EFE53890F43BA
:103240008920758BB8758DB8C2ABD28ED2AFD2AC97
:10325000538EF7759A50538EFB759CE8438E10750C
:03326000AF012299
:0D3502007F64900000E4F0A3DFFCE4F55EC0
:01350F002299
:0C354600C2AC8F993099FDC299D2AC2222
:1032F2008B088A09890AC2ACAB08AA09A90A121D5D
:10330200BF6013050AE50A7002050914F9121DBF10
:09331200FF12354680E2D2AC2224
:1033AD008B5B8A5C895D8B3F8A4089417B017A000A
:0E33BD007900122ECAE94A4B6002D322C322C5
:0E3510007BFF7A2F794C1232F27F640234AACC
:0E351E007BFF7A2F795E1232F27F640234AAAC
:1030E8007BFF7A2F79641232F27F641234AA7BFF55
:1030F8007A2F79691232F27F641234AA7BFF7A2F11
:1031080079791232F27F641234AA7BFF7A2F79859B
:103118001232F27F641234AA7BFF7A2F799D123221
:0B312800F27F641234AA7F1A023546C1
:030023000231F7B0
:1031F700C0E0C083C082C0D0C2AC309902C299304F
:10320700981CC2987400255EF582E43400F583E5C6
:1032170099F0055EE55ED394644003755E00D2AC19
:09322700D0D0D082D083D0E03277
:073590003230002D003A006B
:1031D70041009B0F41009A0241009C1A41009D0E3D
:0C31E70041009F1741009E1E021E303167
:06343300C294C290D29485
:10343900D294EF7F08A2E09291D290C290C313DF99
:01344900F48E
:01344A00225F
:10348700D2947F08C313A29192E7D290C290DFF43F
:01349700FF35
:013498002211
:06000E00E4FDFC7F8EFE04
:0F0014001234330000AF05123439D290C2942257
:0C3539001234330000123487D290C29488
:013545002263
:10309C00E4FDFC7F8EFE12001490009EE0FD339543
:0430AC00E0FC7F8045
:0630B0008F08AB05AA0425
:1030B6007C007D0AAF03AE02121E178F09AE02AF67
:1030C600037C007D0A121E17AB05E509C454F02BDC
:1030D600FB12000EAF08AD031200147D807F8E0236
:0230E6000014D4
:102FA50012309C12000EA3E0FD3395E0FC7F8212E7
:102FB50030B012000E90009DE0FD3395E0FC7F845B
:102FC5001230B012000E90009CE0FD3395E0FC7FBE
:102FD500861230B012000E90009AE0FD3395E0FCA9
:102FE5007F881230B012000EA3E0FD3395E0FC7F20
:042FF5008C0230B06A
:102DA1007F81123539EF547FFE540F90009EF0EE73
:102DB100C4540F75F00AA4FFE02FF07F8312353958
:102DC100EF547FFE540FA3F0EEC4540F75F00AA424
:102DD100FFE02FF07F85123539EF543FFE540F90FD
:102DE100009DF0EEC4540F75F00AA4FFE02FF07FB0
:102DF10087123539EF543FFE540F90009CF0EEC41A
:102E0100540F75F00AA4FFE02FF07F89123539EFD6
:102E1100541FFE540F90009AF0EEC4540F75F00A3F
:102E2100A4FFE02FF07F8D123539EFFE540FA3F090
:0C2E3100EEC4540F75F00AA4FFE02FF06F
:012E3D002272
:10304C0012309CA3E0FD3395E0FC7F821230B090EF
:10305C00009DE0FD3395E0FC7F841230B090009C25
:10306C00E0FD3395E0FC7F861230B090009AE0FDD5
:10307C003395E0FC7F881230B0A3E0FD3395E0FC83
:10308C007F8C1230B07D807C007F8E7E000200141D
:10338D00EF75F00A121D9D2430F51EEF75F00A122F
:10339D001D9DAFF0EF2430F51F7B007A00791E22C2
:10294900750EEF750F7D7510FF7511357512907B3A
:102959001F7A007D1E7C007F107E0012218A900064
:102969009BE0FF12338D8B108A118912750EEF755A
:102979000F7D7B1F7A007D1E7C007F207E00122147
:102989008A750EEF750F7D7510FF751135751293E8
:102999007B1F7A007D1E7C007F307E0012218A9089
:1029A900009AE0FF12338D8B108A118912750EEF90
:1029B900750F7D7B1F7A007D1E7C007F387E00129B
:1029C900218A750EEF750F7D7510FF75113575121A
:1029D900937B1F7A007D1E7C007F487E0012218A2E
:1029E90090009CE0FF12338D8B108A118912750EAD
:1029F900EF750F7D7B1F7A007D1E7C007F507E0066
:102A090012218A90009DE0FF12338D8B108A118963
:102A190012750EEF750F7D7B1F7A007D327C007F6A
:102A2900107E0012218A750EEF750F7D7510FF75E6
:102A390011357512957B1F7A007D327C007F207ECF
:102A49000012218A90009FE0FF12338D8B108A11AA
:102A59008912750EEF750F7D7B1F7A007D327C0020
:102A69007F287E0012218A750EEF750F7D7510FF84
:102A79007511357512957B1F7A007D327C007F3880
:102A89007E0012218A90009EE0FF12338D8B108AFE
:102A9900118912750EEF750F7D7B1F7A007D327CCF
:082AA900007F407E0002218A3B
:0331F300011B01BC
:102B7F00D2A1D2A0D2A5D2A4D2A2D2A6D2A3D280C1
:102B8F0020A114E4F51CF51DE51A64507003022C06
:102B9F0041751A507F5022208014E4F51CF51DE575
:102BAF001A64467003022C41751A467F462220A0F4
:102BBF0011E4F51CF51DE51A644C6076751A4C7F0F
:102BCF004C2220A511E4F51CF51DE51A6452606234
:102BDF00751A527F522220A411E4F51CF51DE51A37
:102BEF006455604E751A557F552220A211E4F51CCD
:102BFF00F51DE51A6444603A751A447F442220A6F5
:102C0F0011E4F51CF51DE51A64536026751A537F00
:102C1F00532220A314051DE51D7002051CE51A643F
:102C2F0054600F751A547F5422E4F51CF51DF51AE4
:052C3F00FF227FFF22CF
:1027D200E519B4520E051BE51BD394064016751B72
:1027E200068011E519B44C0C151BE51BC39401506E
:1027F20003751B01E51B64017037E519B45514908C
:10280200009BE004F0E0D3648094E3500302294883
:10281200E4F022E5196444600302294890009BE039
:1028220014F0E0C36480948040030229487463F08A
:1028320022E51B64027036E519B4551390009AE044
:1028420004F0E0D36480948C5003022948803AE576
:10285200196444600302294890009AE014F0E0C32E
:10286200648094814003022948740CF022E51B64C1
:10287200037038E519B4551590009CE004F0E0D3DC
:102882006480949F50030229487401F022E5196480
:1028920044600302294890009CE014F0E0C3648085
:1028A20094814003022948741FF022E51B640470DE
:1028B20031E519B4551490009DE004F0E0D3648032
:1028C20094975003022948E4F022E5196444707693
:1028D20090009DE014F0E0C3648094805068741707
:1028E200F022E51B6405702CE519B4551190009F88
:1028F200E004F0E0D3648094BB404BE4F022E5199D
:102902006444704290009FE014F0E0C364809480BD
:102912005034802FE51B6406702CE519B4551190D4
:10292200009EE004F0E0D3648094BB4019E4F022FE
:10293200E519B4441190009EE014F0E0C364809461
:07294200805003743BF022FA
:1033CB00E519B44C0AC2B77F641234AAD2B722E50E
:0E33DB0019B45209C2B37F641234AAD2B322CD
:101A4000021D88E86480F8E933E83360110460F02F
:101A5000ED33EC337009E8FCE9FDEAFEEBFF22040C
:101A600060DED3EB9FEA9EE99DE8C2E78CF0C2F707
:101A700095F0400CE8CCF8E9CDF9EACEFAEBCFFBD3
:101A8000121D5385D0F05804700320D5B3E80470BC
:101A9000075002B2D5021D9292D5EC0460F7E4CC57
:101AA000C0E0C398F8603B94186008400DD0E0FB9C
:101AB000021D6AE4FBFAC9FC8028E830E406E4C9A8
:101AC000FBE4CAFCE830E305E4C9CACBFCE85407F0
:101AD0006010F8C3E913F9EA13FAEB13FBEC13FCFB
:101AE000D8F130F52FC3E49CFCEF9BFFEE9AFEED9E
:101AF00099FDD0E0FBEF4E4D4C701222DB03021D2E
:101B00008FEC2CFCEF33FFEE33FEED33FDED30E7D1
:101B1000EB021D6AEF2BFFEE3AFEED39FDD0E0FB44
:101B200050130BBB0003021D92ED13FDEE13FEEFED
:081B300013FFEC13FC021D6A17
:101B3800EC4D6011E8497017ED33EC3304600DE4A7
:101B4800FCFFFEFD22E933E8330470F8021D881219
:101B58001D5358046009E4CC24815006285009021A
:101B68001D92284003021D8FC0E0EB4A7044B980E3
:101B780006D0E0FB021D7EEF4E701CBD8008EBFF17
:101B8800EAFEE9FD80EBE98DF0A4FEE5F0021C21F8
:101B9800E9CDF9EAFEEBFFEF89F0A4FCE5F0CE8988
:101BA800F0A42EFFE435F0CD89F0A42DFEE435F045
:101BB8008067EF4E7005BD80D780C3EF8BF0A4AC73
:101BC800F0EE8BF0A42CFCE435F0F8EF8AF0A42CAE
:101BD800E5F038FCE433CB8DF0A42CFCE5F03BF8C1
:101BE800EE8AF0A42CFCE5F038F8E433CF89F0A4B1
:101BF8002CFCE5F038CF3400CE89F0A42FFFE5F0B7
:101C08003EFEE433C98DF0A42EFEE5F039CD8AF00E
:101C1800A42FFFE5F03EFEE43DFD33D0E0FB500786
:101C28000BBB000F021D92EC2CFCEF33FFEE33FED2
:061C3800ED33FD021D6A00
:101C3E00021D92EC5D046005E859047003021D88D4
:101C4E00121D53580460F6EC4860F2EC7004FDFE71
:101C5E00FF22C860DB2481C85009C3986002500679
:101C6E00021D8F9850CAF582E9294B4A7005AB8246
:101C7E00021D7E75F0007C1A7880C3EF9BEE9AED04
:101C8E0099400DC3EF9BFFEE9AFEED99FDE842F0F1
:101C9E00DC23ACF0D0E0FFD0E0FED0E0FDAB822044
:101CAE00E7101BEB60BAEC2CFCEF33FFEE33FEEDCE
:101CBE0033FD021D6AE803F830E705C0F075F00049
:101CCE00EF2FFFEE33FEED33FD40B830E7C280AAB2
:101CDE0075F020800E75F010800575F0087D007E81
:101CEE00007F003392D530D503121E6CEC334010BA
:101CFE00EF33FFEE33FEED33FDEC33FCD5F0ED228A
:0E1D0E00E5F0247EA2D513CC92E7CDCEFF22C5
:101D1C00EDD2E7CD33EC3392D524814006E4FFFEBF
:101D2C00FDFC22FCE4CFCECDCC24E0501174FF801E
:101D3C00EDC3CC13CCCD13CDCE13CECF13CF0470BB
:071D4C00F030D5DE021E6C31
:101D5300E9D2E7C933E833F892D5EDD2E7CD33ECD6
:071D630033FC5002B2D5224F
:101D6A00EC30E7100FBF000C0EBE00080DBD0004DA
:101D7A000BEB6014A2D5EB13FCED92E7FD2274FF86
:101D8A00FCFDFEFF22E480F8A2D574FF13FC7D80DF
:031D9A00E480EFF3
:03000000022E3E8F
:0C2E3E00787FE4F6D8FD75815E022E85D9
:101D9D00C2D530F707B2D563F0FF05F030E70CB2CE
:101DAD00D5F4048463F0FF05F080018430D502F48E
:021DBD000422FE
:101DBF00BB010689828A83E0225002E722BBFE0222
:091DCF00E32289828A83E4932255
:101DD800BB010CE58229F582E5833AF583E02250C0
:101DE80006E92582F8E622BBFE06E92582F8E2220A
:0D1DF800E58229F582E5833AF583E4932224
:101E0500EF8DF0A4A8F0CF8CF0A428CE8DF0A42EF1
:021E1500FE22AB
:101E1700BC000BBE0029EF8DF084FFADF022E4CCAF
:101E2700F875F008EF2FFFEE33FEEC33FCEE9DEC78
:101E3700984005FCEE9DFE0FD5F0E9E4CEFD22EDBE
:101E4700F8F5F0EE8420D21CFEADF075F008EF2F08
:101E5700FFED33FD4007985006D5F0F222C398FDF9
:051E67000FD5F0EA2296
:0E1E6C00C3E49FFFE49EFEE49DFDE49CFC2287
:0C1E7A00ECF0A3EDF0A3EEF0A3EFF022DB
:0C1E8600A42582F582E5F03583F5832267
:0C355200EE30E707C3E49FFFE49EFE227A
:102ECA008B3C8A3D893EAB3FAA40A941121DBF6097
:102EDA0063AB3CAA3DA93E121DBF605F853F428598
:102EEA0040438541448B458A468947AB42AA43A958
:102EFA0044121DBFFF6023AB45AA46A947121DBF56
:102F0A006F7017042544F544E43543F543740125ED
:102F1A0047F547E43546F54680D1AB42AA43A94472
:102F2A00121DBF7002800D7401253EF53EE4353D49
:102F3A00F53D809DAB3CAA3DA93E227B007A0079F3
:022F4A00002263
:102E4A00021E92E493A3F8E493A34003F68001F2EE
:102E5A0008DFF48029E493A3F85407240CC8C33389
:102E6A00C4540F4420C8834004F456800146F6DF58
:102E7A00E4800B01020408102040809031B9E47EFE
:102E8A00019360BCA3FF543F30E509541FFEE4934D
:102E9A00A360010ECF54C025E060A840B8E493A314
:102EAA00FAE493A3F8E493A3C8C582C8CAC583CA3F
:102EBA00F0A3C8C582C8CAC583CADFE9DEE780BEF7
:0131F60000D8
:00000001FF
